:100000000C94D8100C9400110C9400110C94001155
:100010000C9400110C9400110C9400110C9400111C
:100020000C9400110C9400110C9400110C9400110C
:100030000C9400110C9400110C9400110C940011FC
:100040000C9400110C9400110C9400110C940011EC
:100050000C9400110C9400110C9400110C94602C61
:100060000C9400110C9400110C9400110C940011CC
:100070000C9400110C9400110C9400110C940011BC
:100080000C94AA2C0C9400110C9400110C940011E7
:100090000C9400110C9400110C9400110C9400119C
:1000A0000C9400110C9400110C9400114A010A00E8
:1000B00000000A00008006010A0000000A0000801B
:1000C000B8010A0000000A000080A5000A00000034
:1000D0000A00008083000A0000000A000080DC00A3
:1000E0000A0000000A00008052000A0000000A0016
:1000F000008041000A0000000A0000806E000A0033
:1001000000000A0000800A09000000F070FE7EFF77
:100110001EFF4EFF2EFF50FE00F000000001000108
:1001200000010001000100010001000100010001C7
:1001300007070040007E1E7F067F167F007E00407E
:1001400005050010001F021F001F0010030300061A
:10015000000700061017808040C020E020E07CFCF3
:1001600002FE01FFF1FFF9FFDAFE04FC78F880805F
:100170000000000000007F7F80FF00FF37FFFEFFD0
:10018000C0FF80FFFFFFFFFFBBFF00FF0FFFE4FC8E
:10019000F2FE04FCF8F800000000010142433C7F3D
:1001A000017F727F7F7F7F7F6F7F387F1C7F267FFD
:1001B0005B5F040703030F14808040C020E020E051
:1001C0007CFC02FE01FFF9FFDAFE04FC78F8808077
:1001D0000000000000000F0F101F203F4F7F98FF0E
:1001E00030FF50FFFFFFFBFF00FF1FFF84FC62FE9C
:1001F00084FC78780000000000000808070F000F5A
:10020000000F0F0F0D0F070F030F040F0B0B000054
:1002100000000B10C0C020E09CFC02FEF1FFE9FFD3
:1002200002FEBCFCC0C000000000030384877BFF0B
:1002300006FFFBFF5EFF30FF51FFACBF111F0E0E2C
:10024000090BC0C020E0DCFC82FEF1FF02FEACFC2A
:1002500050D080800000050502070107070703074B
:1002600001070207050509081010A8B854FC22FE72
:10027000F9FF42FE2CFCD0F0202007050606090FEE
:100280000B0F05070B0F090F06060606090F090FCE
:100290000507090F090F06060A050C0C121E171F89
:1002A0000B0F0B0F0B0F0B0F171F121E0C0C0C0C50
:1002B000121E151F090F090F090F090F151F121E16
:1002C0000C0C1008787884FC86FE96FE657F657FAE
:1002D000757F657F657F757F657F657F96FE86FE8E
:1002E00084FC7878787884FC82FE92FE517F417F8E
:1002F000417F417F417F417F417F517F92FE86FE5A
:1003000084FC7878140AF0F008F814FC0AFE2AFE3F
:1003100049FF49FF49FF69FF49FF49FF69FF49FF5D
:1003200049FF49FF2AFE0AFE14FC08F8F0F001011B
:1003300002030203020302030101010101010101A1
:100340000101010101010101010101010203020397
:10035000020302030101F0F008F804FC02FE32FE81
:1003600031FF01FF01FF09FF01FF01FF09FF01FF4D
:1003700001FF31FF32FE02FE04FC08F8F0F001013B
:100380000203020302030203010101010101010151
:100390000101010101010101010101010203020347
:1003A0000203020301011B0D606090F048F8A4FCF9
:1003B00012FE59FF55FF15FF15FF15FF15FF55FFDD
:1003C00095FF55FF95FF55FF15FF15FF15FF15FF0D
:1003D00055FF59FF12FEA4FC48F890F060600F0F23
:1003E000101F101F101F111F111F0D0F05070507EC
:1003F0000707050707070507070705070707050795
:100400000707050705070D0F111F111F101F101FEC
:10041000101F0F0F606090F008F804FC02FE61FFEF
:1004200061FF69FF01FF09FF01FF09FF01FF09FFEC
:1004300001FF09FF01FF09FF01FF69FF61FF61FF84
:1004400002FE04FC08F890F060600F0F101F101FF0
:10045000101F101F101F0C0F0407040704070407C8
:100460000407040704070407040704070407040734
:1004700004070C0F101F101F101F101F101F0F0F4D
:100480002311808040C030F088F844FC5AFE4DFFB4
:1004900055FF51FF55FF55FF55FF55FF55FF55FFC0
:1004A00055FF55FF55FF55FF55FF55FF55FF55FFAC
:1004B00055FF55FF55FF51FF55FF4DFF5AFE44FCB8
:1004C00088F830F040C08080FDFD02FF51FF12FF30
:1004D00004FF05FF15FF15FFD4FF547F547F547FA1
:1004E000447F447F547F457F467F557F467F457FCD
:1004F000547F447F447F547F547F547FD4FF15FF43
:1005000015FF05FF04FF12FF51FF02FFFDFD000074
:1005100001010101010101010101010101010000CD
:1005200000000000000000000000000000000000CB
:1005300000000000000000000000000000000000BB
:10054000000000000101010101010101010101019F
:1005500001010000808040C030F008F804FC82FEF9
:1005600081FF91FF81FF91FF01FF11FF01FF11FF4B
:1005700001FF11FF01FF11FF01FF11FF01FF11FF3B
:1005800001FF11FF01FF91FF81FF91FF81FF82FEBB
:1005900004FC08F830F040C08080FDFD02FF40FF01
:1005A00000FF00FF01FF01FF01FFC1FF417F407F0E
:1005B000407F407F407F407F407F407F407F407F43
:1005C000407F407F407F407F407F407F417FC1FF31
:1005D00001FF01FF01FF00FF00FF40FF02FFFDFDE3
:1005E00000000101010101010101010101010101FD
:1005F00000000000000000000000000000000000FB
:1006000000000000000000000000000000000000EA
:1006100000000000000001010101010101010101D0
:10062000010101010000F0F89C8E8783878E9CF801
:10063000F00000FEFF0303030303070EFCF80000B5
:10064000FEFF0303030303070EFCF80000FFFF0097
:10065000000000000000FFFF0000FEFF8383838393
:1006600083C7EE7C380000F8FC0E07030303070E77
:10067000FCF800003F7FE0C08080C0E07F3FFFFFCC
:1006800001010101010101FFFF0000FFFF0C0C0C43
:100690000C1C3E77E3C100007FFFC0C0C0C0C0E0BB
:1006A000703F1F00001F3F70E0C0C0C0E0703F1FE0
:1006B00000007FFFC1C1C1C1C1E3773E1C00001F24
:1006C0003F70E0C0C0C0E0703F1F000000000001AC
:1006D000FFFF01000000D5F08D14A1C881CFD9F132
:1006E000AF20000108FF601000000C0C0CFCFC0C9B
:1006F0000C0CF0F81C0C0C0C1CF8F00000FCFCCCF2
:10070000CCCCFC7800000000000000FCFC0C0C0CC1
:100710001CF8F00000FCFCCCCCCCCC7C380000FCFD
:10072000FC00043CF8C000C0F83C0400FCFCCCCC4D
:10073000CCCCCC0000FCFCCCCCCCCC7C3800007801
:10074000FCCCCCCCDC98000000408080808A8A8081
:10075000808082828A8888888A828280808A8A8051
:1007600080808080808080808080808A8A8888885D
:100770008A828280808A8A808080828A8888808A31
:100780008A808080808A8A8A808080808A8A88881D
:1007900088888880808A8A808080828A888880820F
:1007A0008A8888888A824000B801770193027D0098
:1007B00093027701B8017D00B801770193027D00B3
:1007C00093027701B8017D00B80177019302FA0026
:1007D00093027D0000007D0093027D000000F40183
:1007E0009302F4015D0177010B027D000B0277019A
:1007F0005D017D005D0177010B027D000B02770139
:100800005D017D005D0177010B02FA000B027D00A6
:1008100000007D000B027D000000F4010B02F401DA
:10082000B801770193027D009302770101800E08E1
:100830003F21211E00102A2A3C004E50503E80C00D
:10084000E0F0F8F8FCFCFCFCF8F8F8F8F0F0F8F848
:10085000FCFEFFFFFEFCF0C0C0C0C0C0C0C0C0C0F6
:10086000C0C0C0C0C0C0C0C0C0C0C0C0C0C0C0C088
:10087000C0C0C0C0C0C0C0C0C0C0C0C0C0C0C0C078
:10088000C0C0C0C0C0F0FCFEFFFFFEFCF8F8F0F0F6
:10089000F8F8F8F8FCFCFCFCF8F8F0E0C080031F66
:1008A000FFFFFFFFFFFFFFFFFFFFFFFFFFFFFFFF58
:1008B000FFFFFFFFFFFFFFFFFFFFFFFFFFFFFFFF48
:1008C000FFFFFFFFFFFFFFFFFFFFFFFFFFFFFFFF38
:1008D000FFFFFFFFFFFFFFFFFFFFFFFFFFFFFFFF28
:1008E000FFFFFFFFFFFFFFFFFFFFFFFFFFFFFFFF18
:1008F000FFFFFFFFFFFFFFFFFFFFFFFF1F030000E2
:100900000003070F0F070703030303030F1F1F1F36
:100910001F1F1F1F1F1F1F3FFFFFFFFFFFDF1F1FA7
:100920001F1F1F1F1F1F1F1F1F1F1F1F1F1F1F1FD7
:100930001F1F1F1F1F1F1F1F1F1F1F1F1F1FDFFF27
:10094000FFFFFFFF3F1F1F1F1F1F1F1F1F1F1F0F27
:10095000030303030307070F0F0703000000000052
:100960000000000000000000000000000000000087
:10097000000000000000000000010303010000006F
:100980000000000000000000000000000000000067
:100990000000000000000000000000000000000156
:1009A0000303010000000000000000000000000040
:1009B0000000000000000000000000000000601ABD
:1009C00000804020109028282828901010302020E7
:1009D000D0D0900C82C20C30C0008080808080809B
:1009E0008080808080808080808080808080808007
:1009F00080808080808080808080808080808080F7
:100A000080808080808000C0300CC2820C90D0D06A
:100A10002020301010902828282890102040800096
:100A200000031CE311313AD0C3232332304606CEF3
:100A3000C089381C196000B0810E30C00000000071
:100A400000000000000000000000000000000000A6
:100A50000000000000000000000000000000000096
:100A600000000000C0300E81B00060191C3889C041
:100A7000CE064630322323C3D03A3111E31C0300A3
:100A80000000000003040402020101010101010A47
:100A90000A0A0A0909090908010E30C10E30C808FE
:100AA00008080808080808080808080808080808C6
:100AB00008080808080808080808080808080808B6
:100AC00008C8300EC1300E0108090909090A0A0ACE
:100AD0000A010101010101020204040300000000F7
:100AE0000000000000000000000000000000000006
:100AF00000000000000000000000000001010000F4
:100B000000000000000000000000000000000000E5
:100B100000000000000000000000000000000000D5
:100B200000000101000000000000000000000000C3
:100B300000000000000000000000000000000000B5
:100B4000BA023C00008075052C01008070F8F8FEA8
:100B5000FEFEFFFFFFFFFFFFFEFEFEFCF8F8701C2D
:100B6000BEFFFFFFFFFFFFFFFFFFFFFFFFFFFFFFD6
:100B7000BE1C070F1FFFFFFFFFFFFFFFFFFFFFFF71
:100B8000FFFF1F0F0700000000010303030303031F
:100B90000303030100000000131A7088286EE21A94
:100BA000FB2955151529FA1AE26C2888701CA2CB6E
:100BB0009A38C7FF8A1404048AFFC7389ACBA21C4C
:100BC000070812E60E71FFE2C9C1C1E2FF710EE62D
:100BD00012080700000000010202020202020202E3
:100BE000020100000000BA022C0110032C01008059
:100BF00097043C0017043C00008009090B0F100803
:100C00000B101417231B14100A07110D0A080504F2
:100C100080808090B8B8FCFCFCFCB81080C0E0C0BC
:100C2000E0F0E0C080C0E0E0F0F8FCF8F8F0F0E0C0
:100C3000F0F8F8F0F0E0E0C0C080800080C0E0F0A4
:100C4000E0800080808080808080808080808080C4
:100C50008080808080808090B8B8FCFCFCFCB8105C
:100C600080C0E0C0E0F0E0C080C0E0E0F0F8FCF858
:100C7000F8F0F0E0F0F8F8F0F0E0E0C4CE8E9E1F5F
:100C80009FBFBFBFBEBE9C888080808080808080E8
:100C90000303030303030303030303030303030324
:100CA0000303030303030303030303030303030314
:100CB0000303030303030303030303030303030304
:100CC00003030303030303030303030303030303F4
:100CD00003030303030303030303030303030303E4
:100CE00003030303030303030303030303030303D4
:100CF00003030303030303030303030303030303C4
:100D000003030303030303030303030303030303B3
:100D10000000000000000000000000000080000053
:100D200080E080800480C080E0F0F8F0F0E0E0C077
:100D3000E0F0F0E0E0C0800C9E120000008080E057
:100D40008000000000000000000000002000000003
:100D50000000000000000000000000000000000093
:100D60000080C080800100800080C080E0F0F8F04A
:100D7000F0E0E4E0E0F0F0E0E0C08000800000009F
:100D8000000004000000000000000000000010004F
:100D90000303030303030303030303030303030323
:100DA0000303030303030303030303030303030313
:100DB0000303030303030303030303030303030303
:100DC00003030303030303030303030303030303F3
:100DD00003030303030303030303030303030303E3
:100DE00003030303030303030303030303030303D3
:100DF00003030303030303030303030303030303C3
:100E000003030303030303030303030303030303B2
:100E1000800A80808090A8A8D4D4D4D4A810804020
:100E200020C06010E0408040A06090E87408089006
:100E300050A0D02808101020204040808000804022
:100E4000E010608000808080808080808080808052
:100E500080808080808080808090A8A8D4D4D4D4E2
:100E6000A810804020C06010E0408040A06090E862
:100E70007408089050A0D0280810102020444A8AF6
:100E8000921596AEAAADAAAA9488808080808080B0
:100E90008080020202020202020202020203020235
:100EA000020202020202020302030302020203021E
:100EB000030302020203020302030202020302020C
:100EC0000202020203020202020202020202020201
:100ED00002020202020202020202020202020202F2
:100EE00002030202020202020202020302030302DE
:100EF00002020302030302020202020202020202CF
:100F000002030202020202020202020202020202C0
:100F1000020200000000000000000000000000804D
:100F200000008060008004804080601088F0F060E5
:100F3000A0402050B040A040800C9E1200000080D5
:100F400000608000000000000000000000002000A1
:100F50000000000000000000000000000000000091
:100F60000000008040008001008000804080601010
:100F700008A0D060A4402050B040A0408000800075
:100F8000000000000400000000000000000000005D
:100F90001000010101010101010101010100010035
:100FA0000001010001000100010000010101000138
:100FB000000000010000000000000101010001002C
:100FC0000100000100010101010101010101010114
:100FD0000101010101010101010101010101010101
:100FE00001000100000100000100010001000000FB
:100FF00001010001000000010001000100010001E9
:1010000000000101010101010101010101010101D2
:10101000010117047D000080171200FCFCFE02FF96
:10102000FAFFFAFFFAFFFAFFFAFF02FFFAFFFAFFF0
:10103000FAFFFAFFFAFF02FFFAFFFAFFFAFFFAFFE0
:10104000FAFF02FFFCFE00FC00FFFFFF00FF03FFB2
:101050007BFF4BFF6BFF03FF78FF4BFF7BFF03FF23
:101060007BFF2BFF78FF03FF7BFF43FF43FF03FF63
:1010700000FFFFFF00FF0000000101030103010367
:101080000103010301030103010301030103010340
:101090000103010301030103010301030103010330
:1010A000000100000708FF0139453901FFFF014930
:1010B0007D4101FFFF0165554901FFFF015555299C
:1010C00001FFFF0131297D01FFFF015D552501FF72
:1010D000FF0139552101FFFF0105750D01FFFF01DA
:1010E00029552901FFFF0109553901FF070800FEB5
:1010F000C6BAC6FE0000FEB682BEFE0000FE9AAA78
:10110000B6FE0000FEAAAAD6FE0000FECED682FEE3
:101110000000FEA2AADAFE0000FEC6AADEFE000063
:10112000FEFA8AF2FE0000FED6AAD6FE0000FEF607
:10113000AAC6FE00FFFFFFFFFFFFFFFFFFFFFFFF4D
:10114000FFFFFFFFFFFFFFFFFFFFFFFFFFFFFF01AD
:10115000010101010101010101010101010101017F
:10116000010101010101010101011B0900FEAABEEB
:10117000FEAABEFEAABEFEAABEFEAABEFEAABEFE73
:10118000AABEFEAABEFE0000000000000000000093
:10119000000000000000000000000000000000004F
:1011A00000000408121F1000121915120A11150A66
:1011B0000C0A1F0817151509FCFCFEFEFEFFFFFFB9
:1011C000FFFFFFFFFFFFFFFFFFFFFEFEFEFCFC7FB8
:1011D0007F7F7F7F7F7F7F7F7F7F7F7F7F7F7F7F1F
:1011E0007F7F7F7F7F7F170F0008E8A4A44402FA67
:1011F0002A2AD202FA1222FA02E42424C8080000A1
:1012000038232000003038383C3C0C2410082430AF
:1012100003022221380000010107070D00010D0122
:101220000D010606000C0C1E1A3F123F0C1E000C8E
:10123000121100FEFCFF02FF02FFFCFF80FE80FE99
:10124000FCFF02FF02FFFCFF80FE80FEFCFF02FFAE
:1012500002FFFCFF00FE00FF7FFF80FF80FF7CFF9E
:1012600004FF04FF7CFF80FF80FF7CFF04FF040F6E
:10127000040F040F020F010700030000000100012A
:101280000001000100000000000100010001000158
:101290000000000000000000000000000000120636
:1012A000002020303038303820303038383C383C5E
:1012B0003C3E3C3E383C183C00180000000000005A
:1012C0000000000000000000000000101038383C52
:1012D0003C3E3C3E3E3F3E3F3C3E3C3E2A3F1A3F6A
:1012E000363F0C3E103C00100000000000000000E3
:1012F0000000003030383038203030383038383C5A
:10130000283C183C30380030000000001206000075
:1013100000000000000000000018183C383C3C3E73
:101320003C3E383C383C3038203030383038203083
:1013300000200010103C0C3E363F1A3F2A3F3C3E36
:101340003C3E3E3F3E3F3C3E3C3E383C1038001069
:101350000000000000000000000000303038183CA1
:10136000283C383C30383038203030383038003085
:10137000000000000000000000002511C0C020E0B7
:1013800050F034F48AFE45FF55FF52FE51FF51FFE5
:1013900055FF55FF52FE55FF75FF55FF51FF55FF95
:1013A00051FF55FF51FF55FF75FF55FF52FE51FF8D
:1013B00051FF55FF55FF52FE55FF45FF8AFE34F49D
:1013C00050F020E0C0C00303FEFF00FF51FF52FFBA
:1013D00044FF45FF54FF15FFD4FF547F547FD4FFD3
:1013E000A4FFA4FFB4FFA5FFA5FFB5FFA5FFA5FFC0
:1013F000B4FFA4FFA4FFD4FF547F547FD4FF15FF94
:1014000054FF45FF44FF52FF51FF00FFFEFF03035F
:1014100000000000010101010101010101010101C0
:1014200001010000000000000000000000000000BA
:1014300000000000000000000000000000000000AC
:101440000000000000000000010101010101010194
:1014500001010101010100000000C0C020E050F0C6
:1014600034F48AFE45FF55FF52FE51FF51FF55FFF0
:1014700055FF52FE55FF75FF55FF51FF55FF51FFB8
:1014800055FF51FF55FF75FF55FF52FE51FF51FFAC
:1014900055FF55FF52FE55FF45FF8AFE34F450F0CC
:1014A00020E0C0C00303FEFF00FF29FF22FF24FF4E
:1014B00005FF14FF15FFD4FF547F547FD4FFA4FF12
:1014C000A4FFB4FFA5FFA5FFB5FFA5FFA5FFB4FFCF
:1014D000A4FFA4FFD4FF547F547FD4FF15FF14FF53
:1014E00005FF24FF22FF29FF00FFFEFF030300008A
:1014F00000000101010101010101010101010101DE
:1015000000000000000000000000000000000000DB
:1015100000000000000000000000000000000000CB
:1015200000000000000001010101010101010101B1
:1015300001010101000000003B1700000000000055
:10154000000000F0F0FCFCFEFEFFFEFFFEFF1EFFB1
:10155000EEFFFEFFFEFFFEFFFEFF1EFFE0FE38FC7B
:10156000C0FEFEFFFEFFFEFFFEFF1EFF80FFE0FC51
:10157000FCFEFEFFFEFF7EFF8EFF02FFF0FFFEFF80
:10158000FEFFFEFF7EFF8EFFF6FF36FF163F183F81
:1015900008FCF0FEFEFFFEFFFEFFFEFF1EFFEEFF5B
:1015A000FEFFFEFFFEFFFEFF1EFFE0FE78FC007860
:1015B000000000C0C0F8B8FFBFFFBFFFFFFF3FFF44
:1015C000C7FFB8FFBFFFBFFFBFFF7FFF8FFFF0FF69
:1015D0003FFF03FFF8FFBFFFBFFFBFFFBFFFA3FF3A
:1015E000BCFFBFFFFFFF3FFFC7FF39FFC6FFB8FFCC
:1015F000BFFFBFFFFFFF3FFFCFFFEEFF2EFF227FAA
:1016000038FFC0FCB8FFBFFFBFFFBFFFBFFFA7FF92
:10161000B8FFBFFFBFFFFFFF1FFFEFFF70FF3F7F60
:10162000033F000300000006060F091F083F287F44
:10163000287F297F2A7F297F287F287F347F3B7F4F
:101640001C3F0F1F010F001F0E1F097F287F287FDF
:10165000287F287F287F2E7F337F3C7F0F3F011F0D
:101660000E1F097F287F287F287F297F2A7F2D7FD3
:10167000307F3078003E0E1F097F287F287F2C7F27
:10168000237F2C7F0B7F287F287F2C7F237F3C7F2D
:101690000F7F000F00000000000000004017000056
:1016A00000000000000000F0F0FCFCFEFEFFFEFF6A
:1016B000FEFF0EFFD6FFD6FFD6FFD6FFD6FF16FFE2
:1016C00016BF18BF18FCC0FCF0FEFEFFFEFFFEFFB9
:1016D000FEFFFEFFFEFFFEFF7EFF80FFF8FD00FC29
:1016E000F0FEFEFFFEFFFEFFFEFFFEFFFEFF3EFFE1
:1016F000C0FFF0FCFCFEFEFFFEFFFEFFFEFFFEFF54
:101700001EFFE0FF08FDF0FEFEFFFEFFFEFF7EFF76
:101710008EFFF6FF36FF163F183F183C001C0000F6
:1017200000C0C0F8B8FFBFFFBFFFFFFF3FFFC7FF0C
:10173000B8FFBFFFBFFFBFFF7FFF8FFF70FF9FFF9F
:10174000E3FFB8FFBFFFBFFF7FFF1FFFE3FFBCFF4B
:10175000BFFFBFFFFFFF0FFF30FFC7FFB8FFBFFF97
:10176000BFFFFFFF3FFFFFFFBFFFBFFFBFFF7FFFC9
:10177000BFFFFFFFBFFFBFFFFFFF3FFFC7FF38FFF8
:10178000C7FFB8FFBFFFBFFFFFFF3FFFCFFFEEFF69
:101790002EFF227F387F087C000800000000000632
:1017A000060F091F083F287F287F297F2A7F2B7F6C
:1017B000287F287F2C7F237F2C7F037F0C5F0B7F6C
:1017C000287F287F2C7F357F257F093F087F287F52
:1017D000287F2C7F237F207F0C7F0B7F287F287F13
:1017E000287F377F287F0F3F287F267F217F0E7F2E
:1017F000097F287F287F2C7F337F3C7F013F0E1F8E
:10180000097F287F287F287F297F2A7F2D7F307FAF
:1018100030780038000000000000000000000208DE
:10182000D4D205077F7F3E1C08411FFE0105F1F160
:10183000F111D1B1D111F151515151515151515178
:1018400051515151510000FF00007F7F09090F06DF
:10185000007F7F19396F46007F7F4949414100264B
:101860006F49497B3200266F49497B32FF0000FFF8
:10187000FFFFFEFFFEFF0279CD95A5CD7901111185
:101880001101F9F901010000FF00007F7F09090F34
:1018900006007F7F40404040007C7E0B0B7E7C003A
:1018A000070F78780F0700000000000000FF00001D
:1018B0001F3F3F33333333333E36363E363E363EBC
:1018C00036363E36363E360000FF00003E7F414150
:1018D0007F3E007F7F0E1C7F7F0000000000000025
:1018E00000000000000000000000000000003F4079
:1018F0005040404078464141595941414141595930
:10190000414141414141414100007F000001017FCF
:101910007F0101007C7E0B0B7E7C007F7F09090F1D
:1019200006007F7F4949414100000000000000FCA3
:10193000FEFF0F0707070707070707070707070740
:101940000707070707070707070707070707070F1F
:10195000FFFEFCFFFFFF0000000000000000000091
:101960000000000000000000000000000000000077
:1019700000000000FFFFFFFFFFFF0000000000006D
:101980000000000000000000000000000000000057
:101990000000000000000000FFFFFFFFFFFF00004D
:1019A0000000000000000000000000000000000037
:1019B000000000000000000000000000FFFFFF0327
:1019C000070F0F0E0E0E0E0E0E0E0E0E0E0E0E0E3C
:1019D0000E0E0E0E0E0E0E0E0E0E0E0E0E0E0E0F26
:1019E0000F0703242400F80402020202020202028A
:1019F00002020202020202020202020202020202C7
:101A000002020202020204F80000FF0000000000CF
:101A100000000000000000000000000000000000C6
:101A20000000000000000000000000FF0000FF00B8
:101A300000000000000000000000000000000000A6
:101A4000000000000000000000000000000000FF97
:101A50000000FF0000000000000000000000000087
:101A60000000000000000000000000000000000076
:101A7000000000FF00000102040404040404040444
:101A80000404040404040404040404040404040416
:101A9000040404040404020100202000FC0202C229
:101AA000C2C28202020282C2C2C20202C2C2C2C256
:101AB000C2C2C2C2C2C2C20202FC0000FF0000FFDA
:101AC000FFFF0F1F3E1F0FFFFFFF0000010101017D
:101AD000FFFFFF010101010000FF0000FF0000FF08
:101AE0008BFF0000000000FF8BFF000000000000E3
:101AF000FF8BFF000000000000FF00003F4050503F
:101B000050505050505050505050505050505050D5
:101B10005050505050505050403F00FCFEFFFFFFCF
:101B2000FFFFFFFFFFFFFFFFFFFFFFFFFFFFFFFFC5
:101B3000FFFFFFFFFFFFFFFFFFFEFCFFFFFFFFFFB9
:101B4000FFFFFFFFFFFFFFFFFFFFFFFFFFFFFFFFA5
:101B5000FFFFFFFFFFFFFFFFFFFFFFFFFFFFFFFF95
:101B6000FFFFFFFFFFFFFFFFFFFFFFFFFFFFFFFF85
:101B7000FFFFFFFFFFFFFFFFFFFFFF3F7FFFFFFFB5
:101B8000FFFFFFFFFFFFFFFFFFFFFFFFFFFFFFFF65
:101B9000FFFFFFFFFFFFFFFFFF7F3F202000FC0252
:101BA0000282C2C2C2C2C2C2C2C2C2820202C2C2D5
:101BB000C2C2C2C2C2C2C2C2C20202FC0000FF0054
:101BC00000FFFFFF7171717171FFFFFF00000101E4
:101BD0000101FFFFFF010101010000FF0000FF0004
:101BE00000FF8BFF0000000000FF8BFF00000000E3
:101BF0000000FF8BFF000000000000FF00003F40DE
:101C000050505050505050505050505050505050D4
:101C100050505050505050505050403F00492000BC
:101C200000001C701C007848780078407800780824
:101C300018000000B8A8F80078487800304878000C
:101C4000027E0000007400504828000000083C4854
:101C500000784878000000F848300030487800509C
:101C60004828005048280000083C48007C087000C4
:101C700030685000000078087800784878007810C4
:101C8000780074007808780030487800083C4800F4
:101C90003068500030487C000000780878007840B8
:101CA0007800781078007C48300030685000780860
:101CB0001800000078487800107C14000000784874
:101CC0004800304878007808180050482800000084
:101CD0003068500030487800784848007C08700030
:101CE000000030487C0030487800B8A07800000040
:101CF000083C480078487800000000000000000020
:101D00000000784848007848780078087800083C57
:101D100048007400780878007840780030685000F7
:101D200000007808180030487800784848007400AF
:101D300078087800B8A878005C0000000000000077
:101D40000000000308403F80030802FD03030880F1
:101D50003F40030803FD0225051F041F00111F114A
:101D6000001F1119001F041F000017151D001F116F
:101D700011001F111F001F051B001F151100130567
:101D800017151D00011F01001F051F001F051B0067
:101D9000011F01421800000000001E0C7F2EFFCE24
:101DA000FFFEFFFEFFFEFFFEFFFEFF3EFFCEFF2E0B
:101DB000FF2E7F267F187F00FCC0FEFCFFFEFFFE8B
:101DC000FFFEFFFEFF7EFF8EFFFEFFFEFFFEFFFE1B
:101DD000FFFEFFFEFF0CFFF0FE00FE0C0F0E0FEEED
:101DE000EFFEFFFEFFFEFFFEFFFEFF1EFFEEFF2EDB
:101DF000FF2E7F327F0CFFC0FEFCFFFEFFFEFFFECA
:101E0000FFFEFF7EFF8EFFFEFFFEFFFEFFFEFFFEDA
:101E1000FFFEFF0CFFF0FE00F80000008000F0E085
:101E2000FF7EFF7FFF7FFF7FFFFFFF1FFFE3FF1CA2
:101E3000FF033F0007008000F8F0FF7EFF7FFF7F79
:101E4000FFFFFFFFFFFFFF63FF7CFF7FFF7FFFFFC1
:101E5000FF7FFFBFFFC7FF38FF077F000FC0C178BC
:101E6000F87FFF7FFF7FFFFFFFFFFF0FFFF1FF0EF8
:101E7000FF011F008300F8F0FF7EFF7FFF7FFF7FE1
:101E8000FF7FFF5FFF43FF7CFF7FFF7FFF7FFFFF41
:101E9000FF3FFFC7FF38FF077F000F0001003C181E
:101EA000FF57FF51FF51FF51FF59FF4FFF31FF0E09
:101EB0007F011F00030000003C18FF57FF51FF5136
:101EC000FF51FF59FF4FFF10FF5FFF51FF51FF51BF
:101ED000FF51FF5FFF60FF17FF18FF54FD54FC53D5
:101EE000FF51FF51FF51FF51FF51FF57FF54FF5D5D
:101EF000FF60FF00F1003C18FF57FF51FF51FF51F9
:101F0000FF51FF4DFF33FF0D7F051F050F050F0527
:101F10000F050F060F030F0007000100000000006F
:101F2000004A180000000000000000008000F0E0FF
:101F3000FCF8FFFEFFFEFFFEFFFEFF1EFFEEFFFEB2
:101F4000FFFEFFFEFFFEFFFEFF3EFFCCFF30FE80E8
:101F5000F8E0FCF8FEFCFFFEFFFEFFFEFF1EFFEEBA
:101F6000FFFEFFFEFFFEFFFEFFFEFF3EFFCCFF3049
:101F7000FE00F880F0E0FCF8FFFEFFFEFFFEFFFE33
:101F8000FFFEFFFEFFFEFFFEFFFEFF1EFFE0FF0065
:101F9000F000C080F0E0FEFCFFFEFFFEFFFEFFFE53
:101FA000FF1EFFEEFFFEFFFEFFFEFFFEFFFEFF7CBB
:101FB000FF88FE70FC00780000008000E0C0FC7824
:101FC000FF7FFF7FFF7FFFFFFFFFFF47FF78FF7F60
:101FD000FF7FFFFFFF7FFF9FFF67FF19FF06FFE106
:101FE000FF7CFF7FFF7FFF7FFFFFFF3FFFC7FF7883
:101FF000FF7FFF7FFF7FFFFFFF7FFF8FFF71FF8E60
:10200000FF61FF78FF7EFF7FFFFFFF3FFF1FFFE3C2
:10201000FF7CFF7FFF7FFF7FFFFFFF3FFFC1FF3E92
:10202000FF01FFE0FF7CFF7FFF7FFF7FFFFFFF3FA0
:10203000FFC7FF78FF7FFF7FFF7FFFFFFF7FFF8FDF
:10204000FF71FF0EFF011F00030000003C18FF5747
:10205000FF51FF51FF51FF51FF4FFF10FF5FFF5135
:10206000FF51FF51FF51FF5FFF60FF1FFF003F0067
:102070003F1FFF51FF51FF51FF51FF57FF55FF56C3
:10208000FF53FF51FF59FF69FF2DFF137F043F19D5
:10209000FF5EFF53FF51FF51FF59FF65FF15FF051D
:1020A0003F19FF51FF51FF51FF51FF5DFF43FF3CBF
:1020B000FF037F18FF5FFF51FF51FF51FF51FF5793
:1020C000FF55FF56FF53FF51FF51FF69FF2DFF33AF
:1020D0007F0C7F031F00070000000000000000418C
:1020E000005A0052000F00490050006E001A000014
:1020F0008006011A044A01AF0000005E014A015E39
:10210000010000AF000601BC02F7000D020601BC91
:1021100002008004083E09093E3F25251A1E2121A0
:10212000123F21211E3F2525213F0505011E2129A2
:102130003A3F04043F213F21001021211F3F040AA0
:10214000313F2020203F02023F3F02043F1E212159
:102150001E3F0909061E21112E3F09093622252599
:1021600019013F01011F20201F0F10201F3F1010D9
:102170003F3B04043B03043807312D23211E29254E
:102180001E223F2000322929261221251A0C0A3F3F
:1021900008172525191E252518013905031A252597
:1021A0001A0629291E002F000000200000000B2D18
:1021B00011241FBECFEFDAE0DEBFCDBF12E0A0E0FA
:1021C000B1E0EAEEFDE602C005900D92A433B1073E
:1021D000D9F727E0A4E3B2E001C01D92A634B2070C
:1021E000E1F710E1C8EDD0E104C02197FE010E94A3
:1021F0002436C73DD107C9F70E945A2E0C94F336F6
:102200000C940000E0913907E11102C080E00895CC
:10221000E150E093390740913407509135076091C0
:10222000360770913707F0E0EE0FFF1FE85DFD4FB6
:1022300080819181B0E0A0E0DC0199278827841794
:102240009507A607B70710F78093340790933507D3
:10225000A0933607B093370781E008958091340743
:1022600090913507A0913607B0913707CD01AA2785
:10227000BB2740913907423061F138F4442301F122
:102280004130B1F060E0862F08954430E1F170F103
:102290004530C1F7883042E5940708F441C08135E4
:1022A00043EC940768F4885092456CE37FE00DC0DE
:1022B000811544E09407A0F1813049E1940710F0C2
:1022C00068E0E1CF945060E273E00E94FC356E5FFD
:1022D000DACF803A4FE0940718F1813C4BE2940743
:1022E00078F7805A9F4064E175E0EFCF80344FE18A
:1022F0009407B0F0893042E5940710F780549F416D
:1023000060E679E0E2CF803B46E3940748F0813411
:102310004CE99407A8F6805B964368EB7BE0D5CF49
:1023200061E0B1CFCF93DF93CDB7DEB72C970FB677
:10233000F894DEBF0FBECDBF8F7096E0899FF0018D
:102340001124E253F94F86E0DE01179601900D92B9
:102350008A95E1F786E0FE013796DE01119601903D
:102360000D928A95E1F729813A814B815C816D81DB
:102370007E8180E090E02C960FB6F894DEBF0FBE11
:10238000CDBFDF91CF910895CF93DF93CDB7DEB767
:102390002C970FB6F894DEBF0FBECDBFE6ECF6E08B
:1023A00030E020E044855585841795075CF5641777
:1023B000750744F186E0829FF001839FF00D1124A0
:1023C000E253F94FDE01179601900D928A95E1F7DD
:1023D00086E0FE013796DE01119601900D928A95F6
:1023E000E1F729813A814B815C816D817E8180E0BA
:1023F00090E02C960FB6F894DEBF0FBECDBFDF91F4
:10240000CF9108952F5F3F4F36962031310551F619
:10241000DFCFCF92DF92EF92FF920F931F93CF9374
:10242000DF9300D000D000D0CDB7DEB77C018C01A7
:1024300097FF02C0015C1F4F36E0159507953A954E
:10244000E1F7C8010E9492114B835C83CB80DC8052
:10245000C80101960E9492114B835C832B813C81C1
:10246000C70160E470E00E941036A9014C195D09B3
:10247000849F9001859F300D949F300D112437FF6C
:1024800002C0215C3F4FC90126E0959587952A95AA
:10249000E1F78C0D9D1D26960FB6F894DEBF0FBE9A
:1024A000CDBFDF91CF911F910F91FF90EF90DF9003
:1024B000CF900895E6ECF2E0A0E0B8E000800EBC1A
:1024C0008111012C1197A0FDFDCF0192B9F70DB438
:1024D000089590914107982329F4909140079823FB
:1024E00081E009F480E008951F93CF93DF93CDB787
:1024F000DEB72E970FB6F894DEBF0FBECDBF182FF4
:102500008EE0EAE1F1E0DE01119601900D928A95EC
:10251000E1F780E00E945A12812F90E0880F991F06
:10252000E1E0F0E0EC0FFD1FE80FF91F20818C0FB8
:102530009D1FFC018281E6ECF2E0208381833296CC
:1025400095E0E634F907C9F72E960FB6F894DEBF8A
:102550000FBECDBFDF91CF911F910895AF92BF9273
:10256000CF92DF92EF92FF920F931F93CF93DF935F
:10257000E82F60913407709135078091360790916C
:1025800037078C0122273327A801E13009F44FC017
:1025900070F0E23009F471C0DF91CF911F910F917B
:1025A000FF90EF90DF90CF90BF90AF9008954135AE
:1025B00026E45207A0F4413020E2520770F541159D
:1025C0005840C8F480E090E0A0E0B8E08093340781
:1025D00090933507A0933607B0933707DDCF413A84
:1025E0002CE85207F8F041385B4BB0F62FE832E0A8
:1025F00041E050E004C026E636E241E050E00E94AF
:102600002A3600E10E94CF362093340730933507F5
:102610004093360750933707BFCF2CEC3CE041E0A6
:1026200050E0EDCF2EE135E041E050E0E8CF015041
:1026300011090115144048F410923407109235071F
:102640001092360710923707A7CFDC019B01AD012E
:1026500060E070E080E090E000E10E94B436A9E91B
:10266000AA2EB9E1BB2ECC24C394D12CE12CF12CA1
:1026700000E010E00E945736C7CF01501109011544
:102680001440D0F2DC019B01AD0160E070E080E01D
:1026900090E000E10E94B436E6E6AE2EF6E6BF2EEC
:1026A000E2CFFC010E946513319728F068517C4FFE
:1026B0008F4F9F4FF9CFAB01FC010E946513641748
:1026C00075078E079F07C8F30895ADEBB2E02FB7EB
:1026D000F8947D918D919C9166B52FBFA89B05C004
:1026E0006F3F18F47F5F8F4F9F4F22E0660F771F79
:1026F000881F991F2A95D1F708952091B002E09183
:10270000AE02F091AF02CF0102969093AF02809398
:10271000AE02222319F085919491089580819181D0
:102720000895E1E7F0E080818D7F80831092910031
:10273000469847981092AD020895CF92DF92EF929B
:10274000FF92CF93DF930E947D13811520E89207BB
:1027500041F4DF91CF91FF90EF90DF90CF900C94F8
:10276000911321E02093AD02813020E8920751F4CB
:102770008091AB029091AC029093AF028093AE0235
:102780000E947D1397FD05C02091AA02222309F41F
:102790005BC02091A902211157C021E02093B10212
:1027A000EC01DF77209709F052C081E08093B202FC
:1027B00046983FE9C32E3FE0D32EE12CF12CCAEF1F
:1027C000D0E0E091A702F091A8020995811103C021
:1027D00081E08093B2028091B102882329F0809138
:1027E000B202882309F446C047980E947D130097DF
:1027F00009F444C09C01DE010E944334DC01CB019A
:1028000029E0B595A795979587952A95D1F71092C8
:1028100090002AE020939100D0929900C0929800F5
:102820008093B3029093B402A093B502B093B60222
:1028300080917100826080937100DF91CF91FF9051
:10284000EF90DF90CF9008951092B102A9CF9E0132
:1028500050E040E060E472E48FE090E00E94EF33EB
:1028600069017A0181E0C81AD108E108F1081092E3
:10287000B202A7CF4699B8CF479AB7CF8FEF9FEF55
:10288000DC01C5CF9C01E1E7F0E090819D7F908362
:1028900081E08093B0023093AF022093AE02309378
:1028A000AC022093AB020C949D136F927F928F9297
:1028B0009F92AF92BF92CF92DF92EF92FF920F93CF
:1028C0001F93CF93DF934C01DB0158017C2D411501
:1028D000510509F4A0C0FA016491319684914E5FCC
:1028E0005F4FC62FD0E0211102C0EE2009F1E1E0D8
:1028F000F0E0982F977011F4F0E0E0E0082F0695D3
:10290000069506950E0F1F2F111D0C9FF0010D9FB0
:10291000F00D1C9FF00D1124733009F08BC0EE0FE9
:10292000FF1F2E9F80012F9F100D1124400F511F5C
:1029300084010C0F1D1F101611060CF06CC0F0E87E
:102940008F1691040CF067C09D01280F311D1216DF
:1029500013060CF060C0A034B1050CF05CC041154A
:10296000510509F458C03A2F3770FD01B7FD37966D
:1029700093E0F595E7959A95E1F72E2FB7FF04C000
:10298000332311F02FEF2E0FEE27FF27E819F90957
:1029900097FC02C0F0E0E0E090E8981900381105DB
:1029A0000CF4962F9E1BA22F022E000CBB0B1A2F8D
:1029B00010952F3F0CF010E0DD24D394082F077002
:1029C00009F4D12C869586958695D80EAD0DB11D4E
:1029D00019971CF0A8E0DA2ED21AD11A210F00E8BC
:1029E0002003D0011124A80DB91DAE0FBF1F619F98
:1029F000E00DF11D11244E0F5F1FE32E032E000C7E
:102A0000FF08733009F424C108F5713009F4D6C009
:102A1000723009F484C0DF91CF911F910F91FF9024
:102A2000EF90DF90CF90BF90AF909F908F907F906E
:102A30006F900895A114B10409F473CFEE9E800144
:102A4000EF9E100D1124A00EB11E6BCF7A3FB1F195
:102A50000D2D020F7B3FF9F62017E9F2BD016A53F5
:102A60007D4FD12CC12CC91608F0A2C0FA01EC0D83
:102A7000FD1DE491F0E04F010E2C02C0880C991C62
:102A80000A94E2F727FD06C0FB018081182D1095FE
:102A900081238083332361F0273054F45B01F0E815
:102AA000AF0EB11C192D1095F50180818123808313
:102AB000FFEFCF1ADF0A6F5F7F4FD5CF0D2D020FCB
:102AC000201709F4A8CFBD016A537D4FD12CC12C2A
:102AD000C91608F067C0FA01EC0DFD1DE491F0E0A5
:102AE0004F010E2C02C0880C991C0A94E2F727FDB6
:102AF00004C0FB01808188298083332351F0273073
:102B000044F45B01F0E8AF0EB11CF5018081892926
:102B10008083FFEFCF1ADF0A6F5F7F4FD9CF6FEF50
:102B200070E0032E02C0660F771F0A94E2F76095EB
:102B30007095972E8D2C820E281509F46CCF8D017F
:102B40000A531D4FD12CC12CC91630F5FA01EC0DDA
:102B5000FD1DE491F0E03F010E2C02C0660C771CD5
:102B60000A94E2F727FD05C0F801808186238629B3
:102B70008083332359F027304CF45801F0E8AF0E2E
:102B8000B11CF5018081892187298083FFEFCF1A4D
:102B9000DF0A0F5F1F4FD8CF2F5F4C0F5D1FA0586C
:102BA000BF4FCACF2F5F4C0F5D1FA058BF4F88CFBC
:102BB0002F5F4C0F5D1FA058BF4F4ECF85010E0FEA
:102BC0001F1F8D2D820F281709F425CFBD016A53D1
:102BD0007D4FD12CC12CC91698F5F801EC0DFD1DC7
:102BE000A490B12C0E2C02C0AA0CBB1C0A94E2F7D4
:102BF000A094B094FA01EC0DFD1D8490912C0E2C44
:102C000002C0880C991C0A94E2F727FD08C0FB015A
:102C10007080E72DEA217E2E7828FB017082332315
:102C200049F027303CF4FB01E058FF4FA080BA2068
:102C3000B928B082FFEFCF1ADF0A6F5F7F4FCBCF8B
:102C40002F5F4C0F5D1F0C0F1D1FA058BF4FBBCF38
:102C5000E92EF12CE40FF51FAA53BD4F60E870E098
:102C60006E197F09CE19DF09AE01440F551FC1E06F
:102C7000D0E07E01032E01C0EE0C0A94EAF7192F72
:102C80000D2D892E932ECF93DF93ED01EF96EF96C6
:102C90002296A590C590992059F0AE9C5001CE9CEB
:102CA000600127302CF4F880D094FD20FB28F992A5
:102CB00022233AF0FC90C094FC20FA28FD920C9458
:102CC000621611961A9529F70A9551F0182D239539
:102CD0001124E40FF11DA60FB11DC60FD11DD9CFD0
:102CE000DF91CF91112497CECF92EF920F931F9344
:102CF00033E0C32EE12C10E000E00E9455141F9138
:102D00000F91EF90CF900895CF92EF920F931F9372
:102D100032E0C32EE12C10E000E00E9455141F9118
:102D20000F91EF90CF9008952D9A089590E00C9414
:102D300051138FB18095807F669B88601C9B846057
:102D4000089594B59F7761110EC02F9A94BD90910C
:102D500080009F7581110BC02E9A41110FC02D9AD2
:102D60009093800008959068609567BDEFCF906262
:102D700010928B00809580938A00EFCF906810921C
:102D80008900409540938800EBCF8091A60208957A
:102D900080389105B4F5480F592F511D4138510520
:102DA00014F040E850E0481BFB0177FD379633E014
:102DB000F595E7953A95E1F7F695FE2FEE27F7950D
:102DC000E795E80FF91FEA53FD4F6770772781E019
:102DD00090E001C0880F6A95EAF7382F213041F45E
:102DE000415078F08191DF011197832B8C93F8CFBC
:102DF0008095415030F09191DF01119798239C9379
:102E0000F8CF089590E1282F81E061FD84E060FD16
:102E1000880F62FD8295687F969FD0011124A20FD2
:102E2000AA53BD4F0C90082A40FF08260C92089523
:102E30008038910528F46034710510F40C94021761
:102E40000895DF92EF92FF920F931F93CF93DF933A
:102E50007C01D22E8B01040F111DEB0177FF02C004
:102E6000D0E0C0E0C8010134110514F080E490E026
:102E7000C817D9073CF44D2DBE01C7010E94181791
:102E80002196F0CFDF91CF911F910F91FF90EF909E
:102E9000DF900895CF92DF92EF92FF920F931F93EE
:102EA000CF93DF936B01122FEC017C01E40EF11C38
:102EB000CE15DF0544F4202F412FB601CE010E942C
:102EC00021172196F5CFDF91CF911F910F91FF90A0
:102ED000EF90DF90CF900895AF92BF92CF92EF9294
:102EE000FF920F931F93CF93DF93C82F81ECE82EAF
:102EF00082E0F82ED7016C91D9E06D9FB0011124CA
:102F00006E5E7F4F12962C9143E151E283E290E096
:102F10000E948416F70160816D9FB00111246E5EDE
:102F20007F4F238143E151E289E290E00E948416C1
:102F3000F6E0CF9F50011124D7016C916D9FB00135
:102F400011246F5E7F4F01E028E046E0C5018296C4
:102F50000E944A17EC2FF0E0EF53FD4FD7016C9120
:102F60006D9FB00111246E5E7F4F9BEFC92EE12C47
:102F700010E000E0228143E151E2C50183960E9406
:102F80005514DF91CF911F910F91FF90EF90CF904B
:102F9000BF90AF900895EF92FF920F931F93CF933E
:102FA000DF937C018B01C42FD22F20E00E94C81632
:102FB000B8016D0F711D6150710920E04C2FC701E0
:102FC0000E94C81620E04D2FB801C7010E942117AA
:102FD000C7018C0F911D20E04D2FB8010197DF91A3
:102FE000CF911F910F91FF90EF900C9421172F928A
:102FF0003F924F925F926F927F928F929F92AF9289
:10300000BF92CF92DF92EF92FF920F931F93CF93D5
:10301000DF93EC018B017A016901C61AD70AD7FE4A
:1030200003C0D194C194D10847018C1A9D0A97FE20
:1030300003C09194819491088C149D0454F49E2DA6
:103040008F2D7901292F382F9C2F8D2FE801092FE3
:10305000182FEC16FD0654F4902F812F8901292F8B
:10306000382F9C2F8D2FE701E92EF82E17012C1AEF
:103070003D0A2901401A510A57FE03C05194419458
:103080005108310137FE03C08FEF681A780A759432
:1030900067948FEF021713070CF481E0A82E880FB6
:1030A000BB08EC16FD06A4F041E0BE01C8018C147B
:1030B0009D0414F0B801CE010E9418176418750819
:1030C00077FE04C00A0D1B1D620C731C2196E9CF0C
:1030D000DF91CF911F910F91FF90EF90DF90CF90F4
:1030E000BF90AF909F908F907F906F905F904F9028
:1030F0003F902F90089508950F9301E023E043E05F
:1031000068E170E08BE090E00E944A170F9108950B
:103110008D3627E09207C8F4893027E0920790F5B2
:10312000813426E0920760F48D3D25E0920708F592
:103130008130910548F18937954000F586E0089582
:10314000853A9640E8F482E0089585352BE09207B1
:1031500048F4813F2AE0920798F48D389A4090F421
:1031600085E008958D312CE0920728F4893B9B403F
:1031700050F383E0089581389C4030F484E0089552
:1031800081E0089580E008950895853328E092074E
:1031900028F4853A964050F081E00895813F2AE076
:1031A000920730F081389C40B8F3089580E008958C
:1031B00082E00895E6E4F2E081E090E0918380838C
:1031C00025E832E035832483178216822AE733E02C
:1031D00033872287958784878FE694E0918B808B55
:1031E000089580914402909145022091110181300F
:1031F00038E29307DCF190529093450280934402A9
:1032000080913207909133079052909333078093C7
:103210003207E6ECF6E046E257E084859585905269
:103220009587848736964E175F07B9F7E6E6F2E092
:1032300080E082135DC080914A0290914B029052CF
:1032400090934B0280934A028091500290915102D8
:103250009052909351028093500280915602909127
:103260005702905290935702809356028091130117
:1032700081111BC080914402909145024091080148
:1032800050910901BC01641B750B6134710568F034
:1032900090930901809308018091040190910501A8
:1032A0000196909305018093040180910D01909106
:1032B0000E01019681387CE0970710F590930E017E
:1032C00080930D0180910D0190910E01889759F521
:1032D00080910B0190910C01019690930C018093C9
:1032E0000B018330910589F42F5F2093110110C0E9
:1032F000448155815052558344838F5F709699CF96
:1033000010920E0110920D01DDCF8730910561F30F
:1033100020911201222379F081E08093130181EF43
:1033200090E20E94421480910A01882319F0815092
:1033300080930A01089594E690930A01982F990FBB
:10334000990F890F825E80931201EDCF8091410722
:10335000809590914007892319F082E080933F0285
:1033600020E049E258E161E170E080E290E00E94F3
:10337000841680913E0790913F0760E370E00E94C1
:10338000FC35843268F4883198F58C30C0F420E044
:1033900042E258E169E170E08BE590E00C9484161C
:1033A0008033A8F720E04EE158E16CE170E08DE257
:1033B00090E00E94841641E060E270E015C020E0D9
:1033C0004EE158E16CE170E08DE290E00E948416DD
:1033D00020E042E258E169E170E08BE590E00E9474
:1033E000841641E06EE170E084E390E00C940217F3
:1033F00041E06FE170E0F8CF0F93873059F401E0BE
:1034000023E043E064E270E08BE090E00E944A1722
:103410000F9108958330E1F701E023E043E06EE18E
:1034200070E0F2CFCF93DF93C0913D02D0E020E077
:103430004CE956E16DE070E080E890E08C1B9D0B5C
:103440000E94741620E048E355E165E270E0CE0189
:10345000CB97DF91CF910C947416EF92FF920F935C
:103460001F93CF93DF93EC017B018A01FA0157FD93
:10347000379683E0F595E7958A95E1F7F695FE2F67
:10348000EE27F795E795C80168E070E00E941036D6
:1034900061E070E0AB0102C0440F551F8A95E2F76E
:1034A000CA01342F8095CE15DF05A4F4C038D105AC
:1034B00068F40034110550F4DF01AC0FBD1FAA53AE
:1034C000BD4F9C91222321F0932B9C932196EBCF0F
:1034D0009823FBCFDF91CF911F910F91FF90EF9039
:1034E0000895CF92DF92EF92FF920F931F93CF93A5
:1034F000DF93EC017B018A01FA0157FD379683E0E7
:10350000F595E7958A95E1F76F01D694DC2CCC24EC
:10351000D794C794C80168E070E00E94103661E05B
:1035200070E0AB0102C0440F551F8A95E2F7CA0153
:10353000542F809541E0CE15DF05D4F4C038D10575
:1035400078F40034110560F4D601AC0FBD1FAA5306
:10355000BD4F9C91F9016081662341F0952B9C93AE
:10356000F9019081942790832196E5CF9823F7CF96
:10357000DF91CF911F910F91FF90EF90DF90CF904F
:103580000895EF92FF920F931F93CF93DF937C01E7
:10359000EB01FC0180819181F9012081222369F0F6
:1035A00098010E94711AF701D183C083DF91CF91F6
:1035B0001F910F91FF90EF90089520E00E942D1A27
:1035C000F2CFAF92BF92CF92EF92FF920F931F93E1
:1035D000CF93DF9300D000D01F92CDB7DEB780919C
:1035E0003A07882309F41BC1813091F500913E0709
:1035F00010913F0720E040E352E161E070E081E09C
:1036000090E00E94741680913907882389F08630F3
:10361000F8F490E0FC01E45EFD4E64918A5E9D4EFC
:10362000FC01849170E020E042E252E190E00EC0A3
:1036300007701127802F869563E00E94F035892F4F
:1036400090E0069620E042E252E1BC010E9474162E
:103650000E942E11F82E80913A07813009F0F9C0AE
:1036600080E0A82EB12CCC24C394E12C04E311E11A
:1036700020E04AE651E161E070E0C5014A960E940F
:103680005514F1E00CE110E0FF12F0C080913E070C
:1036900090913F078F719927803140F025E042E0FB
:1036A00063E070E0C5014C960E94CB178E010F5F5E
:1036B0001F4F85E0F80111928A95E9F78091040186
:1036C000909105016AE070E00E94FC3578019E014E
:1036D0002A5F3F4FF8014AE0A42EB12CCB01B5017F
:1036E0000E94FC3581932E173F07C1F794E5A92E60
:1036F000B12CF70121917F014CEE50E161E070E0C7
:10370000C5010E948416F6E0AF1AB10826E3A2169E
:10371000B10479F780910401909105016AE070E0AD
:103720000E94FC35282F44EA50E161E070E08AE510
:1037300090E00E94841620E045E261E070E08CE3B6
:1037400090E00E94C81620E045E269E070E08CE35A
:1037500090E00E94C81620E048E061E070E08AE551
:1037600090E00E94211780910D0190910E010E941E
:10377000C51820E048E061E070E0882359F047E098
:1037800062E070E081E690E00E94211721E047E0CE
:1037900062E070E080E690E00E94211720E048E1BE
:1037A00050E161E070E088E690E00E94741680913C
:1037B0001201882379F080910D0190910E01893BCF
:1037C0009B4040F080913E078F7121F482E190E1AF
:1037D0000E9442142091120180910D0190910E01DE
:1037E000222309F454C0893B9B4008F454C08091C3
:1037F0003E0790913F078F719927803108F04BC0A9
:103800000F900F900F900F900F90DF91CF911F911D
:103810000F91FF90EF90CF90BF90AF900895CC2480
:10382000C394E12C08EB11E120E046EE51E161E0A8
:1038300070E081E090E00E945514209139072150FA
:1038400042EA51E166E070E082E190E00E94841675
:10385000FFCE84E006CF20E045E063E070E0C501E4
:10386000800F911D0E9421171F5F0D5F1F1509F426
:103870001DCF163080F31830B8F725E042E063E042
:1038800070E0C501800F911D0E94CB17EDCF893BE1
:103890009B4008F0B5CF3AE0822F632F0E94F035AD
:1038A00099830E94F0359A83822F64E60E94F03556
:1038B0008B8386E7A82EB12CF80121918F014CEE65
:1038C00050E163E070E0C5010E948416F6E0AF1A93
:1038D000B10824E6A216B10479F792CFFC018181E8
:1038E000823009F443C028F4813069F190E080E02F
:1038F00008958330A9F08430C9F7A381B0E0AA0FFE
:10390000BB1FAE53BE4FE2818D919C91E80FF92F02
:10391000F11D3197208130EF3203C0011124089549
:10392000A381B0E0AA0FBB1FAE53BE4FE2818D91C1
:103930009C91E80FF92FF11D3197808120E1829F42
:10394000C00111240895A381B0E0AA0FBB1FA854A1
:10395000BE4FE2818D919C91E80FF92FF11D3197B7
:10396000808130E1839FC00111240895A381B0E0DC
:10397000AA0FBB1FA854BE4FC6CFAF92BF92CF9223
:10398000DF92EF92FF920F931F93CF93DF93FC018F
:1039900086819781A085B1859C01AD0160E070E0D2
:1039A00080E090E000E10E94B436A12CB12CE8E068
:1039B000CE2EF7E0DF2EE12CF12C00E010E00E948B
:1039C0005736842FDF91CF911F910F91FF90EF9089
:1039D000DF90CF90BF90AF900895AF92BF92CF92FB
:1039E000DF92EF92FF920F931F93CF93DF93E090BC
:1039F0001101A0902E07B0902F07A80EB91EE091DC
:103A00003207F0913307E60FF71F26E6C22E22E0B9
:103A1000D22EE60110E000E0F12CEF1409F4C0C052
:103A2000288139814E855F85240F351FA501421BF2
:103A3000530B9A01475B5F4F4339510508F0ABC008
:103A40004C815D81DF01A41BB50BAD01DB96A7376F
:103A5000B10508F0A0C00097C9F04F5C5F4F433636
:103A60005105A0F48091AD02811104C08FED90E268
:103A70000E9442148F2DDF91CF911F910F91FF90E3
:103A8000EF90DF90CF90BF90AF90089561157105D2
:103A900009F481C02D5B3F4F2738310508F07BC00A
:103AA0008091AD02811104C08FED90E20E9442141A
:103AB000AC80BD8080913207909133078A159B05B9
:103AC000CCF6CE010E94BD1C8A0D9B2D911DAC0130
:103AD000465F5F4F288139818E859F85280F391F6A
:103AE00094E0000F111F9A95E1F7F801EA59FD4F94
:103AF0008485882329F08385833021F0843039F14F
:103B000090E003C095859195990F290F311D97FD80
:103B10003A951091110180E090E0181799F1F8168C
:103B200089F0F601608171810684F785E02D6E0FC2
:103B30007F1FFB01E21BF30B1E161F0654F4EA3431
:103B4000F1056CF08F5FB0E1CB0ED11CE6CF95850F
:103B5000DBCFD901A61BB70BAA34B1059CF7F60140
:103B600064817581FB01E41BF50B1E161F0624F40E
:103B7000FC9744F791E0E6CFDA01A61BB70BDC9780
:103B8000CCF3E0CF911176CFEAE0AE0EB11CBD824E
:103B9000AC82F1946FCFF3940F5F1F4F60963DCFCF
:103BA0008FE7F82E67CFCF938EE297E00E94BD1C7F
:103BB00021E0823030F022E08F3018F4869529E041
:103BC000281B622F70E080913E0790913F070E9472
:103BD000FC352695C1E0821708F4C0E080914002D0
:103BE0009091410290932F0780932E078091320786
:103BF000909133070E940912909331078093300708
:103C00002C2F4AE753E16FE270E08EE290E00E94D1
:103C1000741680911401882319F181508093140146
:103C2000869563E00E94F035C92F8091150184309C
:103C300049F0292F4CE053E16AE370E088E290E01C
:103C40000E94741680911501833051F02C2F4EE99B
:103C500052E16AE370E087E490E0CF910C9474162F
:103C6000CF910895CF92DF92EF92FF926B017C018A
:103C7000C114D104E104F10441F00E948133A70191
:103C800096010E94EF336B017C01C701B601FF90E2
:103C9000EF90DF90CF900895E6ECF6E090E080E0C2
:103CA0001186108613861286958784873696805CE7
:103CB0009F4F811524E0920799F71092C7066FE095
:103CC00070E080E090E00E94321E6B5F7F4F8F4F6C
:103CD0009F4F6093C8061092CB066FE070E080E0C3
:103CE00090E00E94321E6B5F7F4F8F4F9F4F60931B
:103CF000CC0608950F931F93CF93DF93C6E4D2E0D1
:103D000000914402109145029801225331098C819F
:103D10009D8182179307B4F46CE271E080E090E03B
:103D20000E94321E685A7D4F8F4F9F4F600F711F48
:103D30007D836C8362E070E080E090E00E94321E40
:103D400079836883269682E0C835D807C9F6DF9163
:103D5000CF911F910F910895CF93DF93EC019A813A
:103D600091509A83911105C08881882329F0813070
:103D700081F1DF91CF91089589818350823068F479
:103D8000198261E170E080E090E00E94321E6D5F78
:103D90007F4F8F4F9F4F6A83ECCF62E070E080E0EF
:103DA00090E00E94321E672B682B692B81F084E023
:103DB000898362E070E080E090E00E94321E6B83B5
:103DC000E62FF0E0E553FE4F80818A83D2CF83E077
:103DD000EFCF89818150823098F262E070E080E01C
:103DE00090E00E94321E672B682B692B71F082E0F5
:103DF000898365E070E080E090E00E94321E6B8372
:103E0000E62FF0E0EA53FE4FDFCF81E0F1CF2F92B3
:103E10003F924F925F926F927F928F929F92AF925A
:103E2000BF92CF92DF92EF92FF920F931F93CF93A7
:103E3000DF93CDB7DEB7CE54D1090FB6F894DEBF0D
:103E40000FBECDBF2E968FAF2E97762E8091440257
:103E50009091450297FDCF969C01F6E03595279508
:103E6000FA95E1F7388F2F8B265F3F4F3EA32DA3A6
:103E7000CF88D88C3FE0C30ED11C80910601909171
:103E800007018C159D0509F441C0022F0B5F802F9F
:103E90008F7010E00F5F1F4F0F70112746E0849F57
:103EA000C0011124FC01EA53F94FA084B18482536C
:103EB000994FDC011496ED90FC90B0E4EB0EF11CF0
:103EC00086EC96E00E946E1C4C01711005C08AECD5
:103ED00096E00E946E1C5C0186EC96E00E94AC1E8F
:103EE0008AEC96E00E94AC1E86E0809FF001819FE4
:103EF000F00D1124E253F94FB182A08293828282A5
:103F0000F582E482D0920701C09206012DA03EA066
:103F1000E6EFFFEFFE8FED8F2F89388D2C5F3F4F3F
:103F20003AAF29AF4F89588D4E5F5F4F27965FAFED
:103F30004EAF27978F89988D06969EA78DA7AF893C
:103F4000B88D1896B8ABAFA7EF89F88DE215F305D9
:103F500008F0AEC4C1010E9492112F8338874987AF
:103F60005A876B877C872F8138853EAF2DAF4B8575
:103F70005C855EAB4DABC10101960E9492112D870D
:103F80003E874F87588B698B7A8B8D859E859CAF3A
:103F90008BAFA989BA89BCABABAB409040025090C3
:103FA0004102A0904202B0904302C0904402D090DF
:103FB00045028DAD9EAD84199509E985FA85EA190A
:103FC000FB092DA93EA92C193D0911F421E030E08F
:103FD00076E0880F991F7A95E1F7B9010E941036B3
:103FE0007B01B0E4EB0EF11C80E090E2B9010E948D
:103FF00010367A8F698F4D8D5E8D4F5F5F4F25969E
:104000005FAF4EAF2597CF01E6E0880F991FEA9585
:10401000E1F7B9010E94103625960EAD1FAD259728
:10402000061B170BC80180969E8B8D8B8F859889F8
:104030008A199B096BA87CA86C187D0819F4662462
:104040006394712C56E0880F991F5A95E1F7B301DC
:104050000E9410368D8D9E8D861B970BDC019096ED
:10406000BCA3ABA3E98DFA8DBF01FF0F880B990BA1
:104070000E94F7344B015C01B701FF0C880B990BD0
:104080000E94F7346B017C0120E030E040EA5FE3FE
:10409000C501B4010E9483359B01AC01C701B60183
:1040A0000E9452340E94BF346F8F78A389A39AA3D1
:1040B0002F8D38A121963FAF2EAF2197B901330F35
:1040C000880B990B0E94F7346B017C0120E030E0F3
:1040D00040E250E4C501B4010E9483359B01AC016C
:1040E000C701B6010E9453340E94BF346FA378A762
:1040F00089A79AA78FA198A523969FAF8EAF2397E4
:10410000ADA1BEA12A163B0609F041C08F89988D4A
:104110000E94921129833A834B835C836D837E8353
:10412000A980BA80B7FE03C0B3E0AB0EB11CB59452
:10413000A794B594A794E0E4AE0EB11CB092100120
:10414000A0920F0180910D0190910E010E94C5185F
:10415000FF24F394811101C0F12CBA948BA09CA090
:1041600029E0821A910830E8A316B10484F4CC2423
:10417000C394EF2C00E11CE02F2D40E15EE0B40180
:10418000C5010E94551440E8A40EB11CECCFC1013A
:10419000817099279AAB89ABAD89BE89EBA1FCA14F
:1041A000EA17FB070CF036C1298D3A8D121613065B
:1041B0000CF030C180E090E2B3010E941036161678
:1041C00017060CF027C1072E000C880B990B0E94D4
:1041D000F7346B017C018BAD9CAD8419950936E0F9
:1041E000880F991F3A95E1F7B3010E941036605C81
:1041F0007F4F072E000C880B990B0E94F7342B0180
:104200003C0120E030E040EA5FE3C701B6010E94D4
:1042100083359B01AC01C301B2010E9452340E945C
:10422000BF34698F7A8F8B8F9C8F498D5A8DBA01DD
:10423000550F880B990B0E94F7342B013C0120E0AD
:1042400030E040E250E4C701B6010E9483359B0193
:10425000AC01C301B2010E9453340E94BF342B0150
:104260008D889E888BA19CA1881A990AA98DBA8DE8
:10427000EF8DF8A1AE1BBF0B2D96BFAFAEAF2D9744
:1042800092014FA158A5241B350B2B963FAF2EAFA3
:104290002B978D899E898819990929969FAF8EAF92
:1042A0002997ED88FE88A12C1CA61BA618AE1FAA74
:1042B0009D8991702F969FAF2F97A0E4EA16F10485
:1042C000F4F58FA998ADB4010E94103621960EAD79
:1042D0001FAD2197060F171F17FF02C010E000E067
:1042E0008BA59CA5B4010E9410362396CEACDFAC02
:1042F0002397C60ED71EB1E8CB16D1041CF020E8D8
:10430000C22ED12CEA2DE170BE2EEC8B2F968FADF4
:104310002F978A0D81708B8B80910D0190910E01EA
:104320000E94C51829A93AA9232B09F478C1813024
:1043300009F447C108F42CC1823009F455C131E0B9
:10434000E31AF1084FA958AD2D968EAD9FAD2D976C
:10435000480F591F58AF4FABABA5BCA52B96EEAD80
:10436000FFAD2B97AE0FBF1FBCA7ABA7A394FA2D31
:10437000F170AF2E29962EAD3FAD29972E153F0532
:1043800009F09BCF49A95AA9452B09F043C026E063
:1043900030E08FA198A5AF8DB8A18A1B9B0BB90106
:1043A0000E9410367B01C201E98DFA8D8E1B9F0B96
:1043B000B9010E9410368B014E0E5F1E57FE03C0DE
:1043C000FFEF4F1A5F0A55944794CFA0D8A42F8DC2
:1043D00038A1C20ED31ED7FE03C03FEFC31AD30AC3
:1043E000D594C794A201401B510B2BA13CA16D8910
:1043F0007E89C6018E199F090E94F717A801440DF6
:10440000551D2BA13CA16D897E89C7018C0D9D1D79
:104410000E94F7172E964FAD2E97442309F454C1EE
:104420008BAC9CAC8DAD9EAD880E991E97FE03C0E3
:104430009FEF891A990A95948794B12C00E2402E37
:10444000512C80911101B81608F03EC1A0E1BA9E2E
:1044500060011124F601EA59FD4F7F0104811581A5
:104460002DA93EA9201731070CF090C04BA95CA9DB
:10447000401751070CF48AC080910D0190910E01F4
:104480000E94C518A82ED7011F969C928E921E9747
:10449000C8010E940912F70193838283809144022C
:1044A000909145027801E81AF90A19F4EE24E39490
:1044B000F12C081B190BC801C1968B3B924008F0E8
:1044C00065C0083621E012070CF0F1C083E002322B
:1044D00031E013074CF4043B11050CF4F3C082E007
:1044E0000C3D11050CF481E090E0FC01E65FF34F18
:1044F0003491FC01EC5FF34FE49121E0A2E0AA12B9
:1045000020E0880F991FDC01AA5EBD4F6D907C9062
:10451000A6014A595D4F6A01DA0112968D919C916C
:104520004091420250914302841B950BF6E0880FA4
:10453000991FFA95E1F7B7010E9410368201061B18
:10454000170B4D8D5E8D040F151F031B11090F5F97
:104550001F4FD6018D919C91880D991D409140026D
:1045600050914102841B950BA6E0880F991FAA95D4
:10457000E1F7B7010E941036CB01805C9F4FE695B2
:10458000A301B8018E1B91090E947416B39459CFF0
:104590000F5F1F4F21E0A701B80190E080E00E946B
:1045A0002D1A9E012D5E3F4FA701B601C8010E9442
:1045B000711A21E0A70161E870E0C6010E942D1A7E
:1045C000BECE0F5F1F4F20E0A701B80190E080E052
:1045D0000E942D1A9E012D5E3F4FA701B601C80112
:1045E0000E94711A20E0E6CF0F5F1F4F9E012D5EE3
:1045F0003F4FA701B80190E080E00E94711A20E0CF
:10460000A701B601C8010E942D1A9E012D5E3F4FE1
:10461000A70161E870E0C6010E94711A90CE1A826B
:104620001982813019F110F1823009F088CE0F5FC4
:104630001F4F20E0A701B80190E080E00E942D1AF2
:104640001A830983BC8A8E010D5E1F4F9E012C5E6A
:104650003F4FA701B601CE0101960E94C11A20E08A
:10466000A70161E870E089819A81A8CF0F5F1F4F91
:104670009E012D5E3F4FA701B80190E080E00E94AF
:10468000711A1A830983BC8A8E010D5E1F4F9E0129
:104690002C5E3F4FA701B601CE0101960E94C11AC0
:1046A0009801A70161E870E089819A81B5CF84E023
:1046B0000C3C41E014070CF417CF85E00A38124097
:1046C0000CF412CF80E010CF06E412E068E5A62ECD
:1046D00062E0B62E2396CEACDFAC2397BDE0CB0EC6
:1046E000D11C2196EEACFFAC2197ECE0EE1AF1085C
:1046F000D80114968D919C91EDA9FEA9E817F907B0
:104700000CF05FC02BA93CA9281739070CF459C03D
:1047100027964EAD5FAD27974215530528F489AD16
:104720009AAD28163906F8F080E0A9ADBAAD2A1680
:104730003B0630F0EDA5FEA52E163F0608F483E0FB
:104740002DA53EA52216330680F04FA558A92416A4
:10475000350608F49EC081E0EDA1FEA12E163F06AD
:1047600070F080E00CC084E0E0CFAFA5B8A92A16B5
:104770003B0688F72DA13EA12216330690F790E064
:10478000FC01EE0FFF1FE45FFD4F40815181FC01F2
:10479000E150F44F8650944FD8012D913C91232B3A
:1047A00009F079C02491FC0184916D897E89621B96
:1047B0007109869520E0D701A81BB109CD010E949F
:1047C00074160A5F1F4FA016B10609F091CFE9A930
:1047D000FAA9EF2B09F453C027962EAD3FAD2797CA
:1047E0002215330508F04BC049AD5AAD83E02416BD
:1047F000350668F08F89988DAD8DBE8D8A1B9B0B19
:10480000EDA5FEA58E179F0708F450C080E02DA5EA
:104810003EA52216330660F02F89388D4D8D5E8DB2
:10482000241B350BAFA5B8A92A173B0708F481E074
:10483000EFA5F8A92E163F0608F080E090E0FC01F5
:10484000E85FFD4F208130E0880F991FFC01E050A8
:10485000FE4FE080F1800D891E89021B130B8F8DA6
:1048600098A1821B930B20E0A701B8010E94741647
:1048700020E0A701B8018FA198A50E947416F1E06D
:104880002F1A310825962EAD3FAD25973E8F2D8FDF
:104890005BCB82E06FCF2491FC0184916D897E898E
:1048A000621B7109869520E0D60186CF82E0AFCFEA
:1048B000C25BDF4F0FB6F894DEBF0FBECDBFDF91F6
:1048C000CF911F910F91FF90EF90DF90CF90BF900D
:1048D000AF909F908F907F906F905F904F903F90A0
:1048E0002F900895CF92EF920F931F93CF938091C3
:1048F000010190910201992309F442C1883718F40B
:104900008D5F8093010161E080E00E94071F80912C
:104910000301813009F490C080F1823009F4ECC0C9
:104920000E94F1180E947A1E8091440290914502E3
:104930009C012A5F3F4F30934502209344028A57DF
:104940009F4F0E940912805C9F4F90934302809377
:1049500042028CEB92E090930E0180930D01CF9177
:104960001F910F91EF90CF9008958350CACF81E0AF
:104970008093030180930201C6CFC09101010C2FE7
:1049800010E020E041E25FE168E070E080E890E064
:10499000801B910B0E94741620E043E95DE162E206
:1049A00070E0C801855491090E947416C83709F057
:1049B000B7CF88E00E94691281111092020180E84D
:1049C0000E94691281111092000180E10E94691217
:1049D000882319F081E08093000101E02FE04CE290
:1049E00068E070E084E590E00E944A178091000141
:1049F00061E170E0813011F06AE070E023E043E0B3
:104A000085E590E00E94CB178BEFC82EE12C10E0DB
:104A100000E020E04EE75DE169E070E08AE590E0CB
:104A20000E94551420E047E55DE160E170E08AE511
:104A300090E00E94551474CF00E02AE244E56CE057
:104A400070E086E190E00E944A1720E042E55DE1D7
:104A50006CE070E086E190E00E94841620E04DE476
:104A60005DE16EE270E086E190E00E94841620E055
:104A700048E45DE16CE070E087E690E00E94841617
:104A800020E043E45DE16EE270E087E690E00E94A2
:104A9000841621E04EE46DE070E089E190E00E9430
:104AA000C81621E04EE464E370E089E190E00E94E2
:104AB000C81621E040E264E170E087E190E00E94E6
:104AC000211721E040E264E170E088E690E00E9476
:104AD000211720E04DE15CE160E170E08CE190E0C5
:104AE0000E94841688E00E946912882309F418CF76
:104AF00082E08093030114CFCC24C394E12C0BE11A
:104B00001BE120E04BE95BE160E170E08BE190E0CC
:104B10000E94551420E049E95AE160E170E085E423
:104B200090E00E94551480913A07813031F583E47A
:104B300090E0CC24C394E12C0FE219E120E043EE95
:104B400059E16EE070E00E94551488E00E946912FD
:104B5000882319F084E080933F0280E20E9469126A
:104B6000811110923A0780E40E946912882309F4A7
:104B7000D7CE81E080933A07D3CE89E190E0D9CFB8
:104B80008111F3CE80910001882309F4F0CE8130A9
:104B900009F0B9CE89E080933F02B5CE2F923F92C3
:104BA0004F925F926F927F928F929F92AF92BF923D
:104BB000CF92DF92EF92FF920F931F93CF93DF93E9
:104BC000CDB7DEB76D970FB6F894DEBF0FBECDBF81
:104BD00080913907882381F08091AD0281110CC04A
:104BE0000E942E11E82FF0E0EE0FFF1FE251FE4F62
:104BF000808191810E94421480913A07882309F4B0
:104C000052C1813031F580E80E946912882391F009
:104C100080910A018B3338F080910B0190910C0147
:104C2000029708F435C180913907853018F48F5FF9
:104C30008093390780E10E946912882351F00E9415
:104C40000211882331F08AE08093140185E080937B
:104C5000150160E081E00E94071F0E94D31D0E94A1
:104C6000E11A20910B0130910C0180910A01223050
:104C7000310508F452C1882309F45FC0CC24C394E1
:104C8000E12C0EE318E020E04EEB59E068E070E024
:104C900080E190E00E94551480910B0190910C01ED
:104CA0008436910508F02FC18A30910508F032C191
:104CB00005E3F02E019708F4F12C20E04EE258E0D5
:104CC00062E170E08F2D90E00E94841602E10F0DEA
:104CD00010910B011536A8F0812F64E60E94F03583
:104CE000E82E2AE1280F43E151E262E170E0802FD3
:104CF00090E00E9484163CE9E39E100D112407E128
:104D00000F0D1B3080F0812F6AE00E94F035192FC3
:104D10002AE1280F43E151E262E170E0802F90E048
:104D20000E9484160B5F2AE1210F43E151E262E108
:104D300070E0802F90E00E9484160E94F1180E947B
:104D40007A1E8EE297E00E94BD1CB82E80910A0167
:104D50008C3338F080910B0190910C01019709F48C
:104D6000B12CEB2CF12CF701E153FE4FC0800091E8
:104D7000320710913307B80190E080E00E94C4111F
:104D8000298B3A8B4B8B5C8B6D8B7E8BB801605C77
:104D90007F4FC8010E94C4112F8B388F498F5A8FC3
:104DA0006B8F7C8F29893A898F89988D280F391FBD
:104DB00037FF02C02F5F3F4F3595279500912E0793
:104DC00010912F07021B130B0E94991685FF24C018
:104DD000053D8EEF180704F18C2C912C70E060E0FB
:104DE00088279927881999090E94ED1C8F37A1F40B
:104DF0008091400290914102881999099093410253
:104E00008093400280912E0790912F07881999096D
:104E100090932F0780932E070E94991686FF20C03B
:104E20000C32A1E01A07E4F4D12C70E060E0C60176
:104E30000E94ED1C8F37A1F48091400290914102B5
:104E40008C0D9D1D909341028093400280912E070E
:104E500090912F07C80ED91ED0922F07C0922E070F
:104E6000BB2009F4BEC0809114018111BAC00F3774
:104E7000BFEF1B070CF0A1C00234EFEF1E070CF0D0
:104E8000DAC008311C4F0CF0A3C010923807A9C03B
:104E9000809114018111CECE8AE08093140185E0C7
:104EA00080931501C7CE0E942E11813031F480917C
:104EB0003907823010F00E94021180913807811169
:104EC000C8CE0E942E11883009F0C3CE80913907D8
:104ED000882309F4BECE90910A019B3338F02091CB
:104EE0000B0130910C012230310538F0853008F08B
:104EF000B0CE8F5F80933907ACCE809114018823A8
:104F000009F4A1CEA6CE8031974208F0D5CE80E339
:104F1000F82ED3CE92E3F92ED0CE882309F40DCF0C
:104F2000CC24C394E12C0CE41BE020E048E95BE0D6
:104F300062E170E083E090E00E94551480910A01E4
:104F4000803550F4833360F58233E8F4843190F097
:104F500087E00E94FC19F1CE8E3628F4813510F1DD
:104F60000E947C18EACE8E3609F0E7CE0E947C18AB
:104F700040E01CC087E00E94FC1940E060E080E057
:104F80000E94A116DACE87E00E94FC1940E060E2A0
:104F900080E00E94A11686E49BE00E944214CDCEE0
:104FA00083E0D7CF83E00E94FC1940E260E080E21A
:104FB0000E94A11680E49BE0F0CF023811050CF4AA
:104FC00064CF0F3B1105E4F1093E13400CF05DCFB7
:104FD00084E08093140185E08093150181E0809343
:104FE000380780913E0790913F0783709927892B5E
:104FF00009F0F7C00E942E11082FB70190E080E061
:105000000E94ED1C182F8F3709F04BC08091380794
:105010008823D1F0809139078130B1F011E00E94EE
:10502000991683FD04C00E94991682FD12E0812F1B
:105030000E94AE1255C084E08093140183E0CCCF6F
:1050400084E080931401C8CF10E00E94991683FF7A
:105050000AC080913907813019F00230110518F02B
:105060000830110580F00E94991683FFD7CF0830D1
:10507000110539F080913907823080F20130110535
:1050800069F613E0CCCF8091360790913707892BD2
:1050900031F48AE08093140185E08093150110E0DB
:1050A000BECF87FD1DC00E94991683FF92C030E1DC
:1050B0001302F0011124EA59FD4F86819781A085E2
:1050C000B1858093340790933507A0933607B0934A
:1050D00037078091320790913307CC96958384836C
:1050E00080910B0190910C0120910A012B3318F44F
:1050F0008130910519F0029708F4BDC28EE297E065
:105100000E94BD1C90E02091320730913307280F98
:10511000391F309333072093320720914402309196
:105120004502820F931F909345028093440280585A
:105130009F4F0E940912805C9F4F9093430280937F
:1051400042022091110140E030E0790181E0E81A4B
:10515000F108842F90E08E159F050CF07AC050E086
:10516000B901681B790B61507109852F90E0861792
:1051700097070CF06CC0A4E0880F991FAA95E1F77F
:105180008C010A591D4F8A589D4FF801A481B581A1
:10519000FC01C480D580AC15BD05CCF4E0E1DE2E69
:1051A000F801DE01119601900D92DA94E1F7F0E139
:1051B000DF2EFC01D80101900D92DA94E1F710E1A5
:1051C000FE013196DC0101900D921A95E1F75F5FC7
:1051D000CCCF80913807811102C083E029CF81E0D4
:1051E00027CFB70190E080E00E94ED1C8F3709F4D3
:1051F00077CF282F082E000C330B37FF03C03195D3
:1052000021953109B4E0220F331FBA95E1F7F90176
:10521000EA59FD4F2091320730913307448155817F
:10522000241735070CF05CCF468157816085718566
:1052300040933407509335076093360770933707D0
:1052400087FD4ECF245C3F4F3583248349CF4F5F8A
:1052500080CFB12C6CEB262E62E0362E40901101EF
:10526000B41408F0D8C1F0E1BF9E70011124870189
:105270000A591D4FD801CD90DC9011971E968D9143
:105280009C911F97C80ED91E1C968C911C97882341
:1052900041F01B968C911B97833029F0843009F4E0
:1052A000DCC080E004C0F80185858195880FC80EB8
:1052B000D11C87FDDA94552453945B0CB0E15B9EBE
:1052C000C0011124FC01EA59FD4F4F01AB2C1D8E8A
:1052D000A3944A10C5C080912E0790912F079C017E
:1052E0002C193D09121613060CF0F8C02A343105AA
:1052F0000CF4FBC0BD8DB11116C1C8010E94BD1CCC
:10530000F80124813581820F932F911D9583848329
:10531000C0904402D0904502960122533109821771
:1053200093070CF067C0F1E0FA1508F017C1E0E050
:10533000EB1509F40FC18C199D09181619060CF00C
:10534000F9C020E1E29FF0011124EA59FD4FC48029
:10535000D58040EB54E0481B590B052E000C660B22
:10536000770B4101881A990A092C000CAA08BB087E
:1053700084169506A606B70664F4CB01BA0168192F
:1053800079098A099B090E94321E860E971EA81E63
:10539000B91EC80CD91CD8011596DC92CE92149770
:1053A00065E070E080E090E00E94321E9B01AC015D
:1053B000275F3F4F4F4F5F4FA8E0B7E00E940E348A
:1053C000CB0177276627F8016683778380879187EB
:1053D00080911201882371F09091130191110AC0FC
:1053E000815080931201882309F4CAC080EF9BE0AA
:1053F0000E944214F701EA59FD4F24852150248769
:105400008385833009F4BFC0843009F4DDC02111E5
:105410008AC0D8018D919C91843191050CF0E0C037
:105420008D3EBFEF9B070CF0E4C08C399F4F0CF012
:10543000DDC062E070E080E090E00E94321ED701A3
:10544000AA59BD4F1D966C931D97E62FF0E0E353CC
:10545000FE4F80811C968C9366C01D968C9126CF42
:10546000BA1491F0D4018D919C9111971E962D91B3
:105470003C91820F931F9C012C193D0912161306B3
:105480003CF42A34310554F030E1830E911C20CFD6
:10549000F601E81BF90BEA34F105B4F7D4011496D0
:1054A0006D907C90C8010E94BD1CF801248135815B
:1054B000820F932F911D9301281B390B121613068F
:1054C00034F42C33310504F7F1E0FD8FDDCF86197C
:1054D0009709CC97CCF621E02D8FD6CFC81AD90AE0
:1054E0008AE4C816D1040CF005CFC0903207D090E2
:1054F00033078EE297E00E94BD1CC80ED11CC80184
:105500000E94BD1CD80114962D913C91820F932FBF
:10551000911D9601281B390B1216130634F42C33F7
:1055200031050CF0E7CEB52C99CE8C199D09CC979E
:10553000D4F3E0CE64EF71E080E090E00E94321E90
:1055400064547D4F8F4F9F4F6C0D7D1DF801758307
:10555000648326CFEF5FAE12EBCE22CF64EF71E013
:1055600080E090E00E94321E64547D4F8F4F9F4F29
:105570006C0D7D1DD80115967C936E93149710CFFA
:1055800086EE9BE035CF858590E0880F991FD80186
:105590004D915C911197481B590B4D935C932111D0
:1055A000C2CF87010A591D4FD8011B961C9266E98C
:1055B00070E080E090E00E94321E6E5C7F4F8F4F63
:1055C0009F4FF8016487AFCF858590E0880F991FC2
:1055D000F80140815181840F951F91838083DFCF33
:1055E000853691050CF025CF83E011C034E0338778
:1055F00020CF62E070E080E090E00E94321E672BD6
:10560000682B692B31F483E0F701EA59FD4F83875A
:1056100010CF84E0F9CF80911301882361F180914C
:105620003D028C36E8F48D5F80933D026D960FB697
:10563000F894DEBF0FBECDBFDF91CF911F910F91C8
:10564000FF90EF90DF90CF90BF90AF909F908F90A2
:105650007F906F905F904F903F902F900C94121A14
:105660000E94121A8EE297E00E94BD1C80933E02B7
:1056700086E080933F026D960FB6F894DEBF0FBEB2
:10568000CDBFDF91CF911F910F91FF90EF90DF90F1
:10569000CF90BF90AF909F908F907F906F905F90D2
:1056A0004F903F902F90089561E080E00E94071F87
:1056B0000E94D31D0E94E11A0E94121A88E00E94E3
:1056C0006912882319F088E080933F020E94F11844
:1056D0000E947A1E80913E02209144023091450240
:1056E000820F932F911D909345028093440280581E
:1056F0009F4F0E940912805C9F4F909343028093BA
:1057000042028CEB92E090930E0180930D0108957C
:105710000C94D93382E090E00E94882B882331F0EA
:105720003E9A3F9A81E08093A60208951092A602C5
:105730003E983F980895DF92EF92FF920F931F9348
:10574000CF93DF9300D000D000D01F92CDB7DEB74B
:1057500095E0899F80011124C80188559F4F0E94C0
:10576000882BD82EC80187559F4F0E94882BE82E82
:10577000C80186559F4F0E94882BF82EC801855579
:105780009F4F0E94D9338E83C80184559F4F0E943A
:10579000D9335E81682F2D2D3E2D4F2D70E080E096
:1057A00090E027960FB6F894DEBF0FBECDBFDF9115
:1057B000CF911F910F91FF90EF90DF9008951F936D
:1057C000CF93DF93EC01162F0E94D933181739F0CD
:1057D000612FCE01DF91CF911F910C94E133DF91C6
:1057E000CF911F910895FF920F931F93CF93DF9353
:1057F000EC018B01FB01F0800E94D933F81621F0F7
:105800006F2DCE010E94E133F801F1802196CE0187
:105810000E94D933F81621F06F2DCE010E94E1339A
:10582000C801DF91CF911F910F91FF9008950F93C1
:105830001F93CF93DF9300D0CDB7DEB7082F86EA52
:1058400090E00E94882B182F87EA90E00E94882B16
:10585000011104C0133511F4833459F18AE090E04A
:105860009A83898363E586EA90E00E94DF2B63E4F4
:1058700087EA90E00E94DF2B08EA10E060E0C801B0
:105880000E94DF2B0F5F1F4F013C1105B9F70BEA98
:1058900010E0BE016F5F7F4FC8010E94F32B89812A
:1058A0009A8102979A8389830B5F1F4F043C1105ED
:1058B00081F70F900F90DF91CF911F910F91089575
:1058C0000F920FB68F939F93EF93FF938091B8023F
:1058D0008D5F8D3708F08D578093B802E9EBF2E0C9
:1058E00080818E4F808391819F4F918382818F4FE2
:1058F000828383818F4F8383EDEBF2E080818F5F22
:10590000808381818F4F818382818F4F82838381C6
:105910008F4F83838FB18F6066991C9B88278F364A
:1059200081F48091B702981B963068F0E0E0F8E0CF
:1059300087E78083818388E180936000F093600033
:10594000FFCF9093B702FF91EF919F918F910FBE80
:105950000F9018951F920F920FB60F9211242F934C
:105960003F934F935F936F937F938F939F93AF93E7
:10597000BF93EF93FF938091B3029091B402A091F3
:10598000B502B091B602892B8A2B8B2B09F440C04B
:105990008091B20281110BC088B190E4892788B947
:1059A0008091B102882319F088B1805888B980911C
:1059B000B3029091B402A091B502B091B60218164C
:1059C00019061A061B069CF48091B3029091B4024A
:1059D000A091B502B091B6020197A109B1098093D7
:1059E000B3029093B402A093B502B093B602FF91B4
:1059F000EF91BF91AF919F918F917F916F915F9147
:105A00004F913F912F910F900FBE0F901F901895BF
:105A10000E949D13ECCF109240071092410780E145
:105A20008093420710923F0710923E07109244075E
:105A300086E292E090933C0780933B0785EC96E1E9
:105A40009093A8028093A70280E090E8909365026B
:105A50008093640246983E9A47983F9A1092340782
:105A600010923507109236071092370710923807B8
:105A70001092390710923A07E6E6F2E01682178292
:105A8000108611861286138614861586709682E01B
:105A9000E63AF80799F76FE070E080E090E00E9446
:105AA000321E21E02093C6061092C7066B5F7F4F1F
:105AB0008F4F9F4F6093C8061092C9066FE070E049
:105AC00080E090E00E94321E1092CA061092CB062F
:105AD0006B5F7F4F8F4F9F4F6093CC061092CD0628
